:100000000C942A000C943F000C943F000C943F0089
:100010000C943F000C943F000C943F000C943F0064
:100020000C943F000C943F000C943F000C943F0054
:100030000C943F000C943F000C943F000C943F0044
:100040000C943F000C943F000C943F000C943F0034
:100050000C943F0011241FBECFE5D8E0DEBFCDBF1A
:1000600011E0A0E6B0E0E4EDFEE202C005900D92E2
:10007000A237B107D9F70E94BF150C9468170C94EA
:100080000000EF92FF920F931F937B018C0120E001
:1000900030E040E05FE40E94ED0388238CF0C8016B
:1000A000B70120E030E040E05FE40E94B9010E9427
:1000B0004D049B01AC01205030404040504806C0E8
:1000C000C801B7010E944D049B01AC01B901CA01EE
:1000D0001F910F91FF90EF900895A0E0B0E0E3E74B
:1000E000F0E00C94EC16DC012B01FA019C919230AB
:1000F00008F439C1EB018881823008F433C19430AF
:1001000069F4843009F02FC111969C91119789816F
:10011000981709F428C1AAE6B0E025C1843009F493
:1001200021C18230A9F4923009F01DC19A01AD01BC
:1001300088E0EA010990AE01E90109929E0181502F
:10014000C1F7E201898111969C918923818308C1BD
:10015000923009F407C112962D903C901397EB0151
:100160008A819B811496AD90BD90CD90DC901797BD
:10017000EC80FD800E811F819101281B390BB90194
:1001800037FF04C066277727621B730B6032710547
:100190000CF061C0121613066CF537014801062EEB
:1001A00004C096948794779467940A94D2F721E0D8
:1001B00030E040E050E004C0220F331F441F551FC1
:1001C0006A95D2F721503040404050402E213F21C7
:1001D00040235123211531054105510521F021E02E
:1001E00030E040E050E079018A01E628F72808294C
:1001F00019293CC0232BD1F1260E371E35014601AB
:10020000062E04C096948794779467940A94D2F744
:1002100021E030E040E050E004C0220F331F441FD3
:10022000551F6A95D2F721503040404050402A2156
:100230003B214C215D21211531054105510521F05E
:1002400021E030E040E050E059016A01A628B728DB
:10025000C828D9280BC0821593052CF01C01AA24AC
:10026000BB24650103C0EE24FF24870111969C91F5
:10027000D20111968C91981709F445C0992339F051
:10028000A80197012A193B094C095D0906C0A6017E
:1002900095012E193F09400B510B57FD08C01182E3
:1002A0003382228224833583468357831DC081E0B5
:1002B00081833382228288279927DC01821B930B5A
:1002C000A40BB50B84839583A683B7830DC0220F3F
:1002D000331F441F551F24833583468357838281F0
:1002E000938101979383828324813581468157814D
:1002F000DA01C9010197A109B1098F5F9F4FAF4F83
:10030000BF4328F30BC0918333822282EA0CFB1C8B
:100310000C1D1D1DE482F5820683178383E0808314
:10032000248135814681578157FF1AC0C901AA2708
:1003300097FDA095BA2F81709070A070B0705695FF
:10034000479537952795822B932BA42BB52B848328
:100350009583A683B7838281938101969383828359
:10036000DF0101C0D201CD01CDB7DEB7E2E10C94CF
:100370000817A0E2B0E0EFEBF1E00C94F816698307
:100380007A838B839C832D833E834F835887E9E058
:10039000EE2EF12CEC0EFD1ECE010196B7010E944F
:1003A0003E068E010F5E1F4FCE010596B8010E94DA
:1003B0003E068A8991E089278A8BC701B801AE0180
:1003C000475E5F4F0E946D000E946905A096E6E0BF
:1003D0000C941417A0E2B0E0E0EFF1E00C94F816F2
:1003E00069837A838B839C832D833E834F835887D5
:1003F000F9E0EF2EF12CEC0EFD1ECE010196B701B7
:100400000E943E068E010F5E1F4FCE010596B80179
:100410000E943E06C701B801AE01475E5F4F0E94D1
:100420006D000E946905A096E6E00C941417A0E206
:10043000B0E0EDE1F2E00C94EC1669837A838B83F3
:100440009C832D833E834F835887CE010196BE0146
:10045000675F7F4F0E943E06CE010596BE016F5E2C
:100460007F4F0E943E069985923088F089898230BC
:10047000C8F0943019F4823051F404C0843029F467
:10048000923081F48AE690E0C6C0923049F420E0D0
:100490009A858A89981321E02A87CE010996BBC0E4
:1004A000823049F420E09A858A89981321E02A8BCA
:1004B000CE014196B0C02D843E844F8458886D880B
:1004C0007E888F88988CEE24FF248701AA24BB2481
:1004D000650140E050E060E070E0E0E0F0E0C10184
:1004E00081709070892BE9F0E60CF71C081D191D2E
:1004F0009A01AB012A0D3B1D4C1D5D1D80E090E073
:10050000A0E0B0E0E614F7040805190520F481E046
:1005100090E0A0E0B0E0BA01A901480F591F6A1F9E
:100520007B1FAA0CBB1CCC1CDD1C97FE08C081E005
:1005300090E0A0E0B0E0A82AB92ACA2ADB2A3196C6
:10054000E032F10549F0660C771C881C991C569422
:10055000479437942794C3CFFA85EA892B893C893D
:100560008B859C85280F391F2E5F3F4F17C0CA010E
:1005700081709070892B61F016950795F794E79438
:1005800080E090E0A0E0B0E8E82AF92A0A2B1B2BD3
:1005900076956795579547952F5F3F4F77FDE7CF46
:1005A0000CC0440F551F661F771F17FD4160EE0CEE
:1005B000FF1C001F111F21503040403090E05907B0
:1005C00090E0690790E4790760F32B8F3C8FDB01A3
:1005D000CA018F779070A070B07080349105A1052A
:1005E000B10561F447FD0AC0E114F10401051105EC
:1005F00029F0405C5F4F6F4F7F4F40781A8EFE1797
:1006000011F081E08A8F4D8F5E8F6F8F78A383E02A
:10061000898FCE0149960E946905A096E2E10C946B
:100620000817A8E1B0E0E7E1F3E00C94F416698361
:100630007A838B839C832D833E834F835887B9E0D5
:10064000EB2EF12CEC0EFD1ECE010196B7010E949F
:100650003E068E010F5E1F4FCE010596B8010E9427
:100660003E062985223008F47EC03989323010F4E4
:10067000B8017CC08A859A8989278A87243011F03D
:10068000223031F4231709F06EC06AE670E06EC0C4
:10069000343039F41D861E861F86188A1C861B86F8
:1006A00004C0323021F484E08987B7015FC02B8514
:1006B0003C858B899C89281B390B3C872B87ED84D3
:1006C000FE840F851889AD88BE88CF88D88CEA143F
:1006D000FB040C051D0540F4EE0CFF1C001F111F50
:1006E000215030403C872B8720E030E040E050E054
:1006F00080E090E0A0E0B0E460E070E0EA14FB0489
:100700000C051D0540F0282B392B4A2B5B2BEA18D2
:10071000FB080C091D09B695A79597958795EE0CD2
:10072000FF1C001F111F6F5F7F4F6F31710531F785
:10073000DA01C9018F779070A070B0708034910594
:10074000A105B10561F427FD0AC0E114F10401051A
:10075000110529F0205C3F4F4F4F5F4F20782D87C8
:100760003E874F87588BBE01675F7F4FCB010E944A
:1007700069056896EAE00C941017A8E1B0E0E3EC94
:10078000F3E00C94F81669837A838B839C832D8322
:100790003E834F83588789E0E82EF12CEC0EFD1E36
:1007A000CE010196B7010E943E068E010F5E1F4FDB
:1007B000CE010596B8010E943E068985823040F040
:1007C0008989823028F0C701B8010E94B60601C0AD
:1007D0008FEF6896E6E00C941417A8E1B0E0E3EF21
:1007E000F3E00C94F81669837A838B839C832D83C2
:1007F0003E834F83588789E0E82EF12CEC0EFD1ED6
:10080000CE010196B7010E943E068E010F5E1F4F7A
:10081000CE010596B8010E943E068985823040F0DF
:100820008989823028F0C701B8010E94B60601C04C
:100830008FEF6896E6E00C941417A8E1B0E0E3E2CD
:10084000F4E00C94F81669837A838B839C832D8360
:100850003E834F83588789E0E82EF12CEC0EFD1E75
:10086000CE010196B7010E943E068E010F5E1F4F1A
:10087000CE010596B8010E943E068985823040F07F
:100880008989823028F0C701B8010E94B60601C0EC
:1008900081E06896E6E00C941417ACE0B0E0E3E584
:1008A000F4E00C94FC1669837A838B839C83CE01DD
:1008B0000196BE016B5F7F4F0E943E068D818230A4
:1008C00061F1823050F1843021F48E81882351F11E
:1008D0002EC02F81388537FD20C06E812F31310524
:1008E0001CF06623F9F023C08EE190E0821B930B8D
:1008F00029853A854B855C8504C056954795379583
:1009000027958A95D2F76623B1F05095409530959A
:1009100021953F4F4F4F5F4F0EC020E030E040E049
:1009200050E009C02FEF3FEF4FEF5FE704C020E03A
:1009300030E040E050E8B901CA012C96E2E00C94A6
:100940001817A8E0B0E0E7EAF4E00C94F4167B0195
:100950008C01611571058105910519F482E0898387
:1009600060C083E089838EE1C82ED12CDC82CB82EB
:10097000ED82FE820F831887C801B7010E941A0515
:10098000FC013197F7FF3BC0222733272E1B3F0B7B
:1009900057016801022E04C0D694C794B794A79457
:1009A0000A94D2F740E050E060E070E081E090E02F
:1009B000A0E0B0E004C0880F991FAA1FBB1F2A95B2
:1009C000D2F70197A109B1098E219F21A023B1235C
:1009D0000097A105B10521F041E050E060E070E032
:1009E0004A295B296C297D294D835E836F83788733
:1009F0008EE190E08E1B9F0B9C838B8312C03097FF
:100A000081F00E2E04C0EE0CFF1C001F111F0A9473
:100A1000D2F7ED82FE820F831887CE1ADF0ADC82BE
:100A2000CB821A82CE0101960E9469052896EAE0DF
:100A30000C941017EF92FF920F931F937B018C0180
:100A400080E0E81680E0F80681E0080780E01807FB
:100A500088F48FEFE816F1040105110531F028F054
:100A600088E090E0A0E0B0E017C080E090E0A0E077
:100A7000B0E012C080E0E81680E0F80680E00807E9
:100A800081E0180728F088E190E0A0E0B0E004C021
:100A900080E190E0A0E0B0E020E230E040E050E013
:100AA000281B390B4A0B5B0B04C016950795F7946E
:100AB000E7948A95D2F7F701EE58FF4F8081281B03
:100AC000310941095109C9011F910F91FF90EF9020
:100AD0000895DF92EF92FF920F931F93FC01E48041
:100AE000F58006811781D1808081823048F480E0D2
:100AF00090E0A0E1B0E0E82AF92A0A2B1B2BA5C060
:100B0000843009F49FC0823021F4EE24FF24870151
:100B100005C0E114F1040105110519F4E0E0F0E06D
:100B200096C0628173819FEF623879070CF05BC0D9
:100B300022E83FEF261B370B2A3131052CF020E04D
:100B400030E040E050E02AC0B801A701022E04C006
:100B500076956795579547950A94D2F781E090E08E
:100B6000A0E0B0E004C0880F991FAA1FBB1F2A9500
:100B7000D2F70197A109B1098E219F21A023B123AA
:100B80000097A105B10521F081E090E0A0E0B0E080
:100B90009A01AB01282B392B4A2B5B2BDA01C901B7
:100BA0008F779070A070B07080349105A105B10569
:100BB00039F427FF09C0205C3F4F4F4F5F4F04C0FF
:100BC000215C3F4F4F4F5F4FE0E0F0E02030A0E06E
:100BD0003A07A0E04A07A0E45A0710F0E1E0F0E08D
:100BE00079018A0127C06038710564F5FB01E1587D
:100BF000FF4FD801C7018F779070A070B07080341C
:100C00009105A105B10539F4E7FE0DC080E490E03F
:100C1000A0E0B0E004C08FE390E0A0E0B0E0E80E18
:100C2000F91E0A1F1B1F17FF05C016950795F7949D
:100C3000E794319687E016950795F794E7948A959F
:100C4000D1F705C0EE24FF248701EFEFF0E06E2F0F
:100C5000679566276795902F9F77D794DD24D79463
:100C60008E2F8695492F462B582F5D29B701CA0133
:100C70001F910F91FF90EF90DF900895FC01DB0131
:100C8000408151812281622F6F7770E0221F2227DD
:100C9000221F9381892F880F822B282F30E0991FE4
:100CA0009927991F11969C93119721153105A9F544
:100CB000411551056105710511F482E037C082E8E4
:100CC0009FEF13969C938E9312979A01AB0167E066
:100CD000220F331F441F551F6A95D1F783E08C9371
:100CE0000DC0220F331F441F551F12968D919C91EA
:100CF0001397019713969C938E931297203080E060
:100D0000380780E0480780E4580758F314962D937D
:100D10003D934D935C93179708952F3F310579F4D8
:100D2000411551056105710519F484E08C9308950E
:100D300064FF03C081E08C9312C01C9210C02F5737
:100D4000304013963C932E93129783E08C9387E068
:100D5000440F551F661F771F8A95D1F7706414964C
:100D60004D935D936D937C93179708951F93DC01CA
:100D7000FB019C91923008F447C08081823008F4D6
:100D800043C0943051F411961C91843099F58181BF
:100D9000682F70E0611B71093FC0843021F09230F0
:100DA00031F48230B9F18181882389F12DC0119607
:100DB0001C9111978230F1F081811817D9F41296A5
:100DC0002D913C911397828193818217930794F020
:100DD00028173907BCF014968D919D910D90BC9108
:100DE000A02D2481358146815781281739074A076C
:100DF0005B0718F4112341F00AC082179307A40778
:100E0000B50740F4112319F061E070E005C06FEF01
:100E10007FEF02C060E070E0CB011F9108950F9357
:100E20001F93DF93CF93CDB7DEB7C655D0400FB633
:100E3000F894DEBF0FBECDBF80E06FEF0E941310AD
:100E400081E060E04BE00E94D71081E061E04BE080
:100E50000E94D71081E062E04BE00E94D710FE01B3
:100E6000ED5AFF4F80E090E0A0EFB1E480839183E2
:100E7000A283B3838E01015B1F4FFE01ED5AFF4F2A
:100E8000608171818281938120E030E04AEF54E4F7
:100E90000E941702DC01CB01F80180839183A283B9
:100EA000B383FE01E15BFF4F608171818281938199
:100EB00020E030E040E85FE30E941D04882344F412
:100EC000FE01E35BFF4F81E090E09183808364C08B
:100ED000FE01E15BFF4F608171818281938120E09F
:100EE0003FEF4FE757E40E94BD0318160CF043C0D4
:100EF000FE01ED5AFF4F608171818281938120E074
:100F000030E040E251E40E941702DC01CB018E0187
:100F1000035B1F4FBC01CD010E944100DC01CB01EE
:100F2000F801918380831FC0FE01E55BFF4F88ECD1
:100F300090E091838083FE01E55BFF4F808191818A
:100F40000197F1F7FE01E55BFF4F91838083DE019E
:100F5000A35BBF4FFE01E35BFF4F8081918101974F
:100F600011969C938E93FE01E35BFF4F80819181EC
:100F70000097D1F627C08E01035B1F4FFE01E15B96
:100F8000FF4F60817181828193810E944100DC0169
:100F9000CB01F80191838083DE01A75BBF4FFE0187
:100FA000E35BFF4F808191818D939C93FE01E75B12
:100FB000FF4F808191810197F1F7FE01E75BFF4FC1
:100FC000918380838FE30E94FF0BFE01EB5BFF4F59
:100FD00080E090E0A8E4B2E480839183A283B383AD
:100FE0008E010F5B1F4FFE01EB5BFF4F6081718134
:100FF000828193812BEA3AEA4AE250E40E94170286
:10100000DC01CB01F80180839183A283B383FE01CD
:10101000EF5BFF4F608171818281938120E030E03E
:1010200040E85FE30E941D04882334F481E0FE0160
:10103000E05CFF4F80839DC0FE01EF5BFF4F60814E
:1010400071818281938120E030E04FE753E40E9478
:10105000BD0318160CF07EC0FE01EB5BFF4F6081F4
:1010600071818281938120E030E04AE754E40E945C
:101070001103DC01CB018CAF9DAFAEAFBFAF6CAD48
:101080007DAD8EAD9FAD20E030E04AEF54E40E948C
:101090001702DC01CB0188AF99AFAAAFBBAF68AD37
:1010A00079AD8AAD9BAD20E030E040E85FE30E947F
:1010B0001D0488232CF481E090E09FAB8EAB3FC0F1
:1010C00068AD79AD8AAD9BAD20E03FEF4FE757E4C7
:1010D0000E94BD0318164CF56CAD7DAD8EAD9FAD75
:1010E00020E030E040E251E40E941702DC01CB0135
:1010F000BC01CD010E944100DC01CB019FAB8EAB56
:101100000FC088EC90E09DAB8CAB8CA99DA901979A
:10111000F1F79DAB8CAB8EA99FA901979FAB8EABCE
:101120008EA99FA9009769F72DC068AD79AD8AADEA
:101130009BAD0E944100DC01CB019FAB8EAB8EA921
:101140009FA99BAB8AAB8AA99BA90197F1F79BAB9F
:101150008AAB18C0FE01EF5BFF4F60817181828115
:1011600093810E944100DC01CB01FE01E05CFF4F56
:101170008083FE01E05CFF4F808189AB89A98A955D
:10118000F1F789AB8FE00E94FF0B80E090E0A8E4CC
:10119000B2E48DA79EA7AFA7B8AB6DA57EA58FA51E
:1011A00098A92BEA3AEA4AE250E40E941702DC01CD
:1011B000CB0189A79AA7ABA7BCA769A57AA58BA5E0
:1011C0009CA520E030E040E85FE30E941D048823F6
:1011D0001CF481E088A791C069A57AA58BA59CA580
:1011E00020E030E04FE753E40E94BD0318160CF0F6
:1011F0007BC06DA57EA58FA598A920E030E04AE7C9
:1012000054E40E941103DC01CB018CA39DA3AEA387
:10121000BFA36CA17DA18EA19FA120E030E04AEF89
:1012200054E40E941702DC01CB0188A399A3AAA36E
:10123000BBA368A179A18AA19BA120E030E040E88E
:101240005FE30E941D0488232CF481E090E09F8FCF
:101250008E8F3FC068A179A18AA19BA120E03FEFBA
:101260004FE757E40E94BD0318164CF56CA17DA111
:101270008EA19FA120E030E040E251E40E941702DD
:10128000DC01CB01BC01CD010E944100DC01CB019E
:101290009F8F8E8F0FC088EC90E09D8F8C8F8C8DF0
:1012A0009D8D0197F1F79D8F8C8F8E8D9F8D01976E
:1012B0009F8F8E8F8E8D9F8D009769F724C068A1B8
:1012C00079A18AA19BA10E944100DC01CB019F8FE3
:1012D0008E8F8E8D9F8D9B8F8A8F8A8D9B8D019790
:1012E000F1F79B8F8A8F0FC069A57AA58BA59CA566
:1012F0000E944100DC01CB0188A788A5898F898DD8
:101300008A95F1F7898F0E94AC0D86E00E94FF0B51
:1013100080E090E0A8E4B2E48D8B9E8BAF8BB88F19
:101320006D897E898F89988D2BEA3AEA4AE250E4EA
:101330000E941702DC01CB01898B9A8BAB8BBC8B93
:1013400069897A898B899C8920E030E040E85FE3F5
:101350000E941D0488231CF481E0888B91C0698958
:101360007A898B899C8920E030E04FE753E40E9422
:10137000BD0318160CF07BC06D897E898F89988D0E
:1013800020E030E04AE754E40E941103DC01CB0185
:101390008C879D87AE87BF876C857D858E859F8571
:1013A00020E030E04AEF54E40E941702DC01CB0158
:1013B00088879987AA87BB87688579858A859B8571
:1013C00020E030E040E85FE30E941D0488232CF415
:1013D00081E090E09F838E833FC0688579858A8510
:1013E0009B8520E03FEF4FE757E40E94BD031816AE
:1013F0004CF56C857D858E859F8520E030E040E250
:1014000051E40E941702DC01CB01BC01CD010E9416
:101410004100DC01CB019F838E830FC088EC90E0FC
:101420009D838C838C819D810197F1F79D838C83B3
:101430008E819F8101979F838E838E819F810097EC
:1014400069F724C0688579858A859B850E9441005B
:10145000DC01CB019F838E838E819F819B838A8356
:101460008A819B810197F1F79B838A830FC06989E9
:101470007A898B899C890E944100DC01CB01888B91
:101480008889898389818A95F1F78983CA5ADF4FD0
:101490000FB6F894DEBF0FBECDBFCF91DF911F9185
:1014A0000F910895DF93CF93CDB7DEB7E1970FB6D5
:1014B000F894DEBF0FBECDBF89AB81E061E040E0B4
:1014C0000E94BA1281E060E041E00E94BA1280E01E
:1014D00069A90E94541081E062E040E00E94BA12C3
:1014E00081E062E041E00E94BA1280E090E0A0E872
:1014F000BFE38DA79EA7AFA7B8AB6DA57EA58FA5AF
:1015000098A92BEA3AEA4AE250E40E941702DC0169
:10151000CB0189A79AA7ABA7BCA769A57AA58BA57C
:101520009CA520E030E040E85FE30E941D04882392
:101530001CF481E088A791C069A57AA58BA59CA51C
:1015400020E030E04FE753E40E94BD0318160CF092
:101550007BC06DA57EA58FA598A920E030E04AE765
:1015600054E40E941103DC01CB018CA39DA3AEA324
:10157000BFA36CA17DA18EA19FA120E030E04AEF26
:1015800054E40E941702DC01CB0188A399A3AAA30B
:10159000BBA368A179A18AA19BA120E030E040E82B
:1015A0005FE30E941D0488232CF481E090E09F8F6C
:1015B0008E8F3FC068A179A18AA19BA120E03FEF57
:1015C0004FE757E40E94BD0318164CF56CA17DA1AE
:1015D0008EA19FA120E030E040E251E40E9417027A
:1015E000DC01CB01BC01CD010E944100DC01CB013B
:1015F0009F8F8E8F0FC088EC90E09D8F8C8F8C8D8D
:101600009D8D0197F1F79D8F8C8F8E8D9F8D01970A
:101610009F8F8E8F8E8D9F8D009769F724C068A154
:1016200079A18AA19BA10E944100DC01CB019F8F7F
:101630008E8F8E8D9F8D9B8F8A8F8A8D9B8D01972C
:10164000F1F79B8F8A8F0FC069A57AA58BA59CA502
:101650000E944100DC01CB0188A788A5898F898D74
:101660008A95F1F7898F81E062E040E00E94BA122A
:1016700080E090E0A0E8BFE38D8B9E8BAF8BB88FAE
:101680006D897E898F89988D2BEA3AEA4AE250E487
:101690000E941702DC01CB01898B9A8BAB8BBC8B30
:1016A00069897A898B899C8920E030E040E85FE392
:1016B0000E941D0488231CF481E0888B91C06989F5
:1016C0007A898B899C8920E030E04FE753E40E94BF
:1016D000BD0318160CF07BC06D897E898F89988DAB
:1016E00020E030E04AE754E40E941103DC01CB0122
:1016F0008C879D87AE87BF876C857D858E859F850E
:1017000020E030E04AEF54E40E941702DC01CB01F4
:1017100088879987AA87BB87688579858A859B850D
:1017200020E030E040E85FE30E941D0488232CF4B1
:1017300081E090E09F838E833FC0688579858A85AC
:101740009B8520E03FEF4FE757E40E94BD0318164A
:101750004CF56C857D858E859F8520E030E040E2EC
:1017600051E40E941702DC01CB01BC01CD010E94B3
:101770004100DC01CB019F838E830FC088EC90E099
:101780009D838C838C819D810197F1F79D838C8350
:101790008E819F8101979F838E838E819F81009789
:1017A00069F724C0688579858A859B850E944100F8
:1017B000DC01CB019F838E838E819F819B838A83F3
:1017C0008A819B810197F1F79B838A830FC0698986
:1017D0007A898B899C890E944100DC01CB01888B2E
:1017E0008889898389818A95F1F78983E1960FB683
:1017F000F894DEBF0FBECDBFCF91DF910895DF9388
:10180000CF93CDB7DEB7E1970FB6F894DEBF0FBE2A
:10181000CDBF89AB81E061E040E00E94BA1281E077
:1018200060E040E00E94BA1280E069A90E94541072
:1018300081E062E040E00E94BA1281E062E041E0B3
:101840000E94BA1280E090E0A0E8BFE38DA79EA7B7
:10185000AFA7B8AB6DA57EA58FA598A92BEA3AEAEC
:101860004AE250E40E941702DC01CB0189A79AA743
:10187000ABA7BCA769A57AA58BA59CA520E030E005
:1018800040E85FE30E941D0488231CF481E088A7E0
:1018900091C069A57AA58BA59CA520E030E04FE713
:1018A00053E40E94BD0318160CF07BC06DA57EA505
:1018B0008FA598A920E030E04AE754E40E94110384
:1018C000DC01CB018CA39DA3AEA3BFA36CA17DA122
:1018D0008EA19FA120E030E04AEF54E40E9417025D
:1018E000DC01CB0188A399A3AAA3BBA368A179A11A
:1018F0008AA19BA120E030E040E85FE30E941D0444
:1019000088232CF481E090E09F8F8E8F3FC068A1E8
:1019100079A18AA19BA120E03FEF4FE757E40E9405
:10192000BD0318164CF56CA17DA18EA19FA120E0EE
:1019300030E040E251E40E941702DC01CB01BC011F
:10194000CD010E944100DC01CB019F8F8E8F0FC023
:1019500088EC90E09D8F8C8F8C8D9D8D0197F1F799
:101960009D8F8C8F8E8D9F8D01979F8F8E8F8E8DEB
:101970009F8D009769F724C068A179A18AA19BA1D6
:101980000E944100DC01CB019F8F8E8F8E8D9F8D39
:101990009B8F8A8F8A8D9B8D0197F1F79B8F8A8F02
:1019A0000FC069A57AA58BA59CA50E944100DC010A
:1019B000CB0188A788A5898F898D8A95F1F7898FB2
:1019C00081E062E040E00E94BA1280E090E0A0E88E
:1019D000BFE38D8B9E8BAF8BB88F6D897E898F898E
:1019E000988D2BEA3AEA4AE250E40E941702DC01A1
:1019F000CB01898B9A8BAB8BBC8B69897A898B895C
:101A00009C8920E030E040E85FE30E941D048823C9
:101A10001CF481E0888B91C069897A898B899C89C3
:101A200020E030E04FE753E40E94BD0318160CF0AD
:101A30007BC06D897E898F89988D20E030E04AE7F0
:101A400054E40E941103DC01CB018C879D87AE8793
:101A5000BF876C857D858E859F8520E030E04AEFCD
:101A600054E40E941702DC01CB0188879987AA877A
:101A7000BB87688579858A859B8520E030E040E8D2
:101A80005FE30E941D0488232CF481E090E09F8393
:101A90008E833FC0688579858A859B8520E03FEFEE
:101AA0004FE757E40E94BD0318164CF56C857D8501
:101AB0008E859F8520E030E040E251E40E941702CD
:101AC000DC01CB01BC01CD010E944100DC01CB0156
:101AD0009F838E830FC088EC90E09D838C838C81E4
:101AE0009D810197F1F79D838C838E819F81019762
:101AF0009F838E838E819F81009769F724C06885BC
:101B000079858A859B850E944100DC01CB019F83FA
:101B10008E838E819F819B838A838A819B8101979B
:101B2000F1F79B838A830FC069897A898B899C89A5
:101B30000E944100DC01CB01888B888989838981DF
:101B40008A95F1F78983E1960FB6F894DEBF0FBE50
:101B5000CDBFCF91DF910895DF93CF93CDB7DEB79F
:101B60002E970FB6F894DEBF0FBECDBF81E00E9466
:101B7000FF0B80E090E0A0E0B0E48B879C87AD870E
:101B8000BE876B857C858D859E8520E030E04AEFA1
:101B900054E40E941702DC01CB018F839887A98748
:101BA000BA876F81788589859A8520E030E040E8A2
:101BB0005FE30E941D0488232CF481E090E09E8363
:101BC0008D833FC06F81788589859A8520E03FEFBE
:101BD0004FE757E40E94BD0318164CF56B857C85D2
:101BE0008D859E8520E030E040E251E40E9417029E
:101BF000DC01CB01BC01CD010E944100DC01CB0125
:101C00009E838D830FC088EC90E09C838B838B81B7
:101C10009C810197F1F79C838B838D819E81019735
:101C20009E838D838D819E81009769F714C06F819B
:101C3000788589859A850E944100DC01CB019E83CD
:101C40008D838D819E819A83898389819A81019771
:101C5000F1F79A8389832E960FB6F894DEBF0FBEF4
:101C6000CDBFCF91DF910895DF93CF9300D00F9236
:101C7000CDB7DEB79B838A8319828981282F30E014
:101C80008A819B81FC01E20FF31F80810E94520A2E
:101C900089818F5F89838981282F30E08A819B81A8
:101CA000FC01E20FF31F8081882339F70F900F901A
:101CB0000F90CF91DF910895DF93CF9300D0CDB7F0
:101CC000DEB789836A8389818230A8F48A81803172
:101CD00090F48981882F90E0002496958795079449
:101CE000969587950794982F802D982F90688A81D4
:101CF000892B0E94FF0B0F900F90CF91DF910895D9
:101D0000DF93CF93CDB7DEB762970FB6F894DEBFFF
:101D10000FBECDBF9A8B898B89899A899E012F5FCF
:101D20003F4FB9014AE050E00E942317CE010196CF
:101D30000E94340E62960FB6F894DEBF0FBECDBF80
:101D4000CF91DF910895DF93CF93CDB7DEB7E0E277
:101D5000F0E082E08083A1E2B0E0E1E2F0E08081A7
:101D60008E7F8C93A1E2B0E0E1E2F0E080818D7F94
:101D70008C93E2E2F0E080E4808382E061E04CE07A
:101D80000E94D71082E060E04CE00E94D710A6E5E8
:101D9000B0E0E6E5F0E0808184608C93CF91DF9144
:101DA0000895DF93CF93CDB7DEB7A6E5B0E0E6E5C3
:101DB000F0E0808180628C93E6E5F0E0808188230A
:101DC000DCF7E1E2F0E08081887FCF91DF91089538
:101DD000DF93CF9300D0CDB7DEB789836A83E3E288
:101DE000F0E08981882F90E0880F991F982F8A81D1
:101DF0008170892B8083A6E5B0E0E6E5F0E0808184
:101E00008F758C93E6E5F0E080818823DCF7E1E2D2
:101E1000F0E08081887F0F900F90CF91DF9108953F
:101E2000DF93CF930F92CDB7DEB78983E3E2F0E083
:101E300089818083A6E5B0E0E6E5F0E080818F77D8
:101E40008C93E6E5F0E080818823DCF7E1E2F0E0C6
:101E50008081887F0F90CF91DF910895DF93CF939A
:101E600000D0CDB7DEB79A838983A6E5B0E0E6E57A
:101E7000F0E080818F778C93E6E5F0E08081882325
:101E8000DCF7E3E2F0E08081E981FA818083E1E23E
:101E9000F0E08081887F0F900F90CF91DF910895BF
:101EA000DF93CF93CDB7DEB7E6E5F0E084E980833A
:101EB000CF91DF910895DF93CF93CDB7DEB7A6E53D
:101EC000B0E0E6E5F0E0808180648C93CF91DF9113
:101ED0000895DF93CF93CDB7DEB7A6E5B0E0E6E592
:101EE000F0E080818F7B8C93CF91DF910895DF9319
:101EF000CF9300D000D000D0CDB7DEB78A837C83EB
:101F00006B834D830E94D10E89838981883019F0BB
:101F100081E08E8329C08A8160E00E94E80E898377
:101F200089818831D9F00E94500F82E08E831CC0D5
:101F3000EB81FC8180810E94100F89838981883226
:101F400029F00E94500F83E08E830EC08D81815056
:101F50008D838B819C8101969C838B838D818823CB
:101F600039F70E94500F1E828E8126960FB6F89484
:101F7000DEBF0FBECDBFCF91DF910895DF93CF932A
:101F800000D000D0CDB7DEB79A8389836B830E94DF
:101F90005B0FE6E5F0E080818823DCF7E1E2F0E02A
:101FA0008081882F90E0887F90708036910531F194
:101FB0000E94690FA6E5B0E0E6E5F0E08081806868
:101FC0008C9384E08C8327C089819A810E942E0F94
:101FD000803861F00E94690FA6E5B0E0E6E5F0E028
:101FE000808180688C9385E08C8315C089819A817B
:101FF00001969A8389838B8181508B838B8188237F
:1020000019F7A6E5B0E0E6E5F0E0808180688C9302
:102010000E94690F1C828C810F900F900F900F907F
:10202000CF91DF910895DF93CF9300D000D0CDB74B
:10203000DEB789836A838981282F30E03C832B8334
:102040008B819C8181309105D1F02B813C812230A4
:1020500031052CF48B819C81009761F01EC02B818F
:102060003C812230310581F08B819C818330910548
:1020700081F013C0E9E3F0E08A8181830EC0E6E3DA
:10208000F0E08A81818309C0E3E3F0E08A81818303
:1020900004C0E0E3F0E08A8181830F900F900F90FD
:1020A0000F90CF91DF910895DF93CF9300D000D0B0
:1020B000CDB7DEB789836A838981282F30E03C83DE
:1020C0002B838B819C8181309105D1F02B813C81C8
:1020D000223031052CF48B819C81009761F01EC069
:1020E0002B813C812230310581F08B819C818330B2
:1020F000910581F013C0E9E3F0E08A8182830EC08C
:10210000E6E3F0E08A81828309C0E3E3F0E08A81BC
:10211000828304C0E0E3F0E08A8182830F900F9015
:102120000F900F90CF91DF910895DF93CF9300D060
:1021300000D0CDB7DEB78A8319828A81282F30E09C
:102140003C832B838B819C8181309105D1F02B8145
:102150003C81223031052CF48B819C81009761F009
:102160001EC02B813C812230310581F08B819C8106
:102170008330910581F013C0E9E3F0E08081898329
:102180000EC0E6E3F0E08081898309C0E3E3F0E07C
:102190008081898304C0E0E3F0E0808189838981C4
:1021A0000F900F900F900F90CF91DF910895DF93D4
:1021B000CF93CDB7DEB729970FB6F894DEBF0FBE29
:1021C000CDBF89836A834B838A81883008F0C9C177
:1021D0008B818B3009F078C08981282F30E03987D6
:1021E0002887888599858130910561F12885398511
:1021F000223031052CF488859985009769F0B1C1AA
:10220000288539852230310599F188859985833073
:10221000910509F443C0A5C1A9E3B0E0E9E3F0E00A
:102220008181482F8A81282F30E081E090E0022EC2
:1022300002C0880F991F0A94E2F7842B11968C93A1
:1022400011978FC1A6E3B0E0E6E3F0E08181482F6B
:102250008A81282F30E081E090E0022E02C0880FB2
:10226000991F0A94E2F7842B11968C93119779C1E8
:10227000A3E3B0E0E3E3F0E08181482F8A81282FD7
:1022800030E081E090E0022E02C0880F991F0A948E
:10229000E2F7842B11968C93119763C1A0E3B0E011
:1022A000E0E3F0E08181482F8A81282F30E081E04F
:1022B00090E0022E02C0880F991F0A94E2F7842B47
:1022C00011968C9311974DC18B818A3009F07CC097
:1022D0008981282F30E03F832E838E819F8181303A
:1022E000910569F12E813F81223031052CF48E81D8
:1022F0009F81009769F035C12E813F8122303105E1
:10230000A9F18E819F818330910509F446C029C1CE
:10231000A9E3B0E0E9E3F0E08181482F8A81282F2A
:1023200030E081E090E0022E02C0880F991F0A94ED
:10233000E2F78095842311968C93119712C1A6E33E
:10234000B0E0E6E3F0E08181482F8A81282F30E079
:1023500081E090E0022E02C0880F991F0A94E2F7F4
:102360008095842311968C931197FBC0A3E3B0E072
:10237000E3E3F0E08181482F8A81282F30E081E07B
:1023800090E0022E02C0880F991F0A94E2F7809510
:10239000842311968C931197E4C0A0E3B0E0E0E3AE
:1023A000F0E08181482F8A81282F30E081E090E0A1
:1023B000022E02C0880F991F0A94E2F780958423A9
:1023C00011968C931197CDC08B818C3009F0C9C0C8
:1023D0008981282F30E03D832C838C819D81813041
:1023E000910509F441C02C813D81223031052CF446
:1023F0008C819D81009771F0B4C02C813D81223089
:10240000310509F45BC08C819D818330910509F40D
:102410007FC0A7C0A9E3B0E0E9E3F0E08181482FE5
:102420008A81282F30E081E090E002C0880F991F58
:102430002A95E2F78095842311968C93A9E3B0E066
:10244000E9E3F0E08281482F8A81282F30E081E0A3
:1024500090E0022E02C0880F991F0A94E2F7842BA5
:1024600012968C9312977DC0A6E3B0E0E6E3F0E00D
:102470008181482F8A81282F30E081E090E002C0DE
:10248000880F991F2A95E2F78095842311968C93E3
:10249000A6E3B0E0E6E3F0E08281482F8A81282FAE
:1024A00030E081E090E0022E02C0880F991F0A946C
:1024B000E2F7842B12968C93129753C0A3E3B0E0FB
:1024C000E3E3F0E08181482F8A81282F30E081E02A
:1024D00090E002C0880F991F2A95E2F78095842327
:1024E00011968C93A3E3B0E0E3E3F0E08281482F00
:1024F0008A81282F30E081E090E0022E02C0880F10
:10250000991F0A94E2F7842B12968C93129729C094
:10251000A0E3B0E0E0E3F0E08181482F8A81282F3A
:1025200030E081E090E002C0880F991F2A95E2F721
:102530008095842311968C93A0E3B0E0E0E3F0E073
:102540008281482F8A81282F30E081E090E0022E9E
:1025500002C0880F991F0A94E2F7842B12968C937D
:10256000129729960FB6F894DEBF0FBECDBFCF915C
:10257000DF910895DF93CF93CDB7DEB727970FB6DE
:10258000F894DEBF0FBECDBF89836A834B838A81F7
:10259000883008F0FBC08B81813009F078C08981D8
:1025A000282F30E03F832E838E819F8181309105DB
:1025B00061F12E813F81223031052CF48E819F8183
:1025C000009769F0E3C02E813F812230310599F1F7
:1025D0008E819F818330910509F443C0D7C0A9E360
:1025E000B0E0E9E3F0E08281482F8A81282F30E0D3
:1025F00081E090E0022E02C0880F991F0A94E2F752
:10260000842B12968C931297C1C0A6E3B0E0E6E348
:10261000F0E08281482F8A81282F30E081E090E02D
:10262000022E02C0880F991F0A94E2F7842B12969B
:102630008C931297ABC0A3E3B0E0E3E3F0E08281B8
:10264000482F8A81282F30E081E090E0022E02C0DE
:10265000880F991F0A94E2F7842B12968C93129795
:1026600095C0A0E3B0E0E0E3F0E08281482F8A81EA
:10267000282F30E081E090E0022E02C0880F991FE1
:102680000A94E2F7842B12968C9312977FC08B8169
:10269000882309F07BC08981282F30E03D832C837B
:1026A0008C819D818130910569F12C813D812230A1
:1026B00031052CF48C819D81009769F067C02C81D5
:1026C0003D8122303105A9F18C819D8183309105B6
:1026D00009F446C05BC0A9E3B0E0E9E3F0E0828121
:1026E000482F8A81282F30E081E090E0022E02C03E
:1026F000880F991F0A94E2F78095842312968C9391
:10270000129744C0A6E3B0E0E6E3F0E08281482FF0
:102710008A81282F30E081E090E0022E02C0880FED
:10272000991F0A94E2F78095842312968C9312974E
:102730002DC0A3E3B0E0E3E3F0E08281482F8A817B
:10274000282F30E081E090E0022E02C0880F991F10
:102750000A94E2F78095842312968C93129716C000
:10276000A0E3B0E0E0E3F0E08281482F8A81282FE7
:1027700030E081E090E0022E02C0880F991F0A9499
:10278000E2F78095842312968C93129727960FB6C2
:10279000F894DEBF0FBECDBFCF91DF910895DF93D8
:1027A000CF9300D000D00F92CDB7DEB78A836B8372
:1027B0008B81883008F067C08A81282F30E03D8304
:1027C0002C834C815D814130510541F18C819D818B
:1027D0008230910534F42C813D812115310561F061
:1027E00052C04C815D814230510551F18C819D81F7
:1027F00083309105B9F147C0E9E3F0E08081282FEB
:1028000030E08B81882F90E0A90102C05595479553
:102810008A95E2F7CA018170898335C0E6E3F0E06A
:102820008081282F30E08B81882F90E0A90102C0A1
:10283000559547958A95E2F7CA018170898323C02F
:10284000E3E3F0E08081282F30E08B81882F90E057
:10285000A90102C0559547958A95E2F7CA01817092
:10286000898311C0E0E3F0E08081282F30E08B8184
:10287000882F90E0A90102C0559547958A95E2F707
:10288000CA018170898389810F900F900F900F90FA
:102890000F90CF91DF910895DF93CF93CDB7DEB73F
:1028A0002E970FB6F894DEBF0FBECDBF0E94A30EC9
:1028B00080E090E0A8ECB2E48B879C87AD87BE8770
:1028C0006B857C858D859E8520E030E04AEF54E461
:1028D0000E941702DC01CB018F839887A987BA87F2
:1028E0006F81788589859A8520E030E040E85FE354
:1028F0000E941D0488232CF481E090E09E838D8348
:102900003FC06F81788589859A8520E03FEF4FE74A
:1029100057E40E94BD0318164CF56B857C858D85A8
:102920009E8520E030E040E251E40E941702DC0185
:10293000CB01BC01CD010E944100DC01CB019E8393
:102940008D830FC088EC90E09C838B838B819C816E
:102950000197F1F79C838B838D819E8101979E83E4
:102960008D838D819E81009769F714C06F81788572
:1029700089859A850E944100DC01CB019E838D836D
:102980008D819E819A83898389819A810197F1F74C
:102990009A8389830E94D10E88E660E00E94E80E47
:1029A0008BE60E94100F80E00E94100F0E94500FD3
:1029B0000E94D10E88E660E00E94E80E8CE10E9441
:1029C000100F80E00E94100F0E94500F2E960FB63D
:1029D000F894DEBF0FBECDBFCF91DF910895DF9396
:1029E000CF93CDB7DEB763970FB6F894DEBF0FBEB7
:1029F000CDBF9F878E87798B688B5B8B4A8B0E94BC
:102A0000D10E88E660E00E94E80E8BE30E94100F72
:102A10000E94500F0E94D10E88E661E00E94E80EED
:102A200019820CC08981282F30E0CE010896820FD0
:102A3000931F0E942E0F89818F5F89838981863041
:102A400088F30E94500F8885882F90E0382F222726
:102A50008985882F90E0822B932B9F838E838A8594
:102A6000882F90E0382F22278B85882F90E0822BAB
:102A7000932B9D838C838C85882F90E0382F222781
:102A80008D85882F90E0822B932B9B838A838E8168
:102A90009F81CC01A0E0B0E0BC01CD010E94A10467
:102AA000DC01CB01BC01CD0120E030E040E856E480
:102AB0000E941103DC01CB01BC01CD012DEC3CECEB
:102AC0004CE151E40E941702DC01CB01EE85FF8549
:102AD00080839183A283B3838C819D81CC01A0E00C
:102AE000B0E0BC01CD010E94A104DC01CB01BC011E
:102AF000CD0120E030E040E856E40E941103DC0103
:102B0000CB01BC01CD012DEC3CEC4CE151E40E9429
:102B10001702DC01CB01E889F98980839183A283C4
:102B2000B3838A819B81CC01A0E0B0E0BC01CD01E0
:102B30000E94A104DC01CB01BC01CD0120E030E00A
:102B400040E856E40E941103DC01CB01BC01CD0139
:102B50002DEC3CEC4CE151E40E941702DC01CB016E
:102B6000EA89FB8980839183A283B38363960FB63E
:102B7000F894DEBF0FBECDBFCF91DF910895DF93F4
:102B8000CF93CDB7DEB7A8970FB6F894DEBF0FBED0
:102B9000CDBF0E944C140E940F0781E065E04BE01E
:102BA0000E94D710CE014D969E012F5D3F4FAE0182
:102BB0004B5D5F4FB9010E94EF1480E060E00E941E
:102BC0005C0E80E690E00E94340E8DA19EA1AFA124
:102BD000B8A5BC01CD010E944D04DC01CB010E94CF
:102BE000800E81E060E00E945C0E85E690E00E942D
:102BF000340E89A19AA1ABA1BCA1BC01CD010E9458
:102C00004D04DC01CB010E94800E80E090E0AAE739
:102C1000B4E4898F9A8FAB8FBC8F698D7A8D8B8D41
:102C20009C8D20E030E04AEF54E40E941702DC0162
:102C3000CB018D8B9E8BAF8BB88F6D897E898F89F1
:102C4000988D20E030E040E85FE30E941D04882377
:102C50002CF481E090E09C8B8B8B3FC06D897E894A
:102C60008F89988D20E03FEF4FE757E40E94BD0326
:102C700018164CF5698D7A8D8B8D9C8D20E030E097
:102C800040E251E40E941702DC01CB01BC01CD01FE
:102C90000E944100DC01CB019C8B8B8B0FC088EC28
:102CA00090E09A8B898B89899A890197F1F79A8BA1
:102CB000898B8B899C8901979C8B8B8B8B899C89B9
:102CC000009769F714C06D897E898F89988D0E945D
:102CD0004100DC01CB019C8B8B8B8B899C89988B71
:102CE0008F878F8598890197F1F7988B8F870E943E
:102CF000AC0D80E090E0AAEFB3E48B879C87AD87B2
:102D0000BE876B857C858D859E8520E030E04AEF0F
:102D100054E40E941702DC01CB018F839887A987B6
:102D2000BA876F81788589859A8520E030E040E810
:102D30005FE30E941D0488232CF481E090E09E83D1
:102D40008D833FC06F81788589859A8520E03FEF2C
:102D50004FE757E40E94BD0318164CF56B857C8540
:102D60008D859E8520E030E040E251E40E9417020C
:102D7000DC01CB01BC01CD010E944100DC01CB0193
:102D80009E838D830FC088EC90E09C838B838B8126
:102D90009C810197F1F79C838B838D819E810197A4
:102DA0009E838D838D819E81009769F7FBCE6F8115
:102DB000788589859A850E944100DC01CB019E833C
:102DC0008D838D819E819A83898389819A810197E0
:102DD000F1F79A838983E6CE2F923F924F925F92CA
:102DE0006F927F928F929F92AF92BF92CF92DF921B
:102DF000EF92FF920F931F93CF93DF93CDB7DEB780
:102E0000CA1BDB0B0FB6F894DEBF0FBECDBF099413
:102E10002A88398848885F846E847D848C849B846A
:102E2000AA84B984C884DF80EE80FD800C811B8178
:102E3000AA81B981CE0FD11D0FB6F894DEBF0FBEA7
:102E4000CDBFED010895FB019F01E8944230C4F02D
:102E50004532B4F44A3029F497FB1EF490958195DD
:102E60009F4F642F77270E945417805D8A330CF0A0
:102E7000895D8193CB010097A1F716F45DE2519330
:102E80001082C9010C944417DC01FC01672F719179
:102E90007723E1F7329704C07C916D937083629140
:102EA000AE17BF07C8F30895AA1BBB1B51E107C0AB
:102EB000AA1FBB1FA617B70710F0A61BB70B881FCA
:102EC000991F5A95A9F780959095BC01CD01089559
:042ED000F894FFCFA4
:102ED400617A3D200061793D20000000000000007F
:102EE40000000001020203030303040404040404B5
:102EF4000404050505050505050505050505050580
:102F0400050506060606060606060606060606065F
:102F1400060606060606060606060606060606064D
:102F2400060607070707070707070707070707072F
:102F3400070707070707070707070707070707071D
:102F4400070707070707070707070707070707070D
:102F540007070707070707070707070707070707FD
:102F640007070808080808080808080808080808DF
:102F740008080808080808080808080808080808CD
:102F840008080808080808080808080808080808BD
:102F940008080808080808080808080808080808AD
:102FA400080808080808080808080808080808089D
:102FB400080808080808080808080808080808088D
:102FC400080808080808080808080808080808087D
:102FD400080808080808080808080808080808086D
:022FE4000808DB
:00000001FF
